:020000040800F2
:1000000000280020A9070008450700084D07000840
:10001000550700085D07000865070008000000009C
:10002000000000000000000000000000D1370008C0
:100030006D07000800000000B1390008F939000818
:10004000F1070008F1070008F1070008F1070008B0
:10005000F1070008F107000879070008F107000818
:10006000F1070008F1070008F1070008F107000890
:10007000F1070008F1070008F1070008F107000880
:10008000F1070008F1070008F1070008F107000870
:10009000F1070008F1070008F1070008F107000860
:1000A000F1070008F1070008F1070008F107000850
:1000B00089070008F107000800000000F1070008A8
:1000C000F10700080000000000000000F107000830
:1000D00000000000F1070008F10700080000000020
:1000E000F1070008F1070008F10700080000000010
:1000F0000000000000000000000000000000000000
:0C01000000000000000000005FF808F1A3
:1001100010B5054C237833B9044B13B10448AFF341
:1001200000800123237010BD60000020000000004B
:10013000A440000808B5034B1BB103490348AFF3C3
:10014000008008BD0000000064000020A4400008FA
:1001500080B485B000AFF860B9607A60FB68064A89
:100160001A60BB68054A1A607B6880221A6000BF6B
:100170001437BD4680BC70477C0000201C01002065
:10018000B0B59AB000AF00F035FB00F067F800F0B2
:10019000A5F800233B6600237B6607F1600301217D
:1001A000184601F0CDFC0346244A13600023BB65CA
:1001B0000023FB6507F158030121184601F0C0FC3C
:1001C00003461F4A13601F4B07F13C041D460FCD29
:1001D0000FC495E8070084E8070007F13C030021FD
:1001E000184601F061FC0346174A1360174B07F1EC
:1001F00020041D460FCD0FC495E8070084E80700D2
:1002000007F120030021184601F04EFC0346104A76
:100210001360104B3C1D1D460FCD0FC495E8070021
:1002200084E807003B1D0021184601F03DFC034611
:10023000094A136001F031FC00BFFDE728030020EC
:100240002C030020C84000081C030020F0400008D8
:1002500020030020184100082403002080B590B03E
:1002600000AF07F1180328220021184603F034FEDE
:100270003B1D00221A605A609A60DA601A610223FC
:10028000BB610123BB621023FB6202237B6300235B
:10029000BB634FF40023FB6307F11803184600F01B
:1002A0008BFD0346002B01D000F091F90F237B60FA
:1002B0000223BB600023FB6000233B6100237B61C2
:1002C0003B1D0021184600F0F9FF0346002B01D02A
:1002D00000F07DF900BF4037BD4680BD80B586B0D7
:1002E00000AF07F1080300221A605A609A60DA60D2
:1002F000224B9B69214A43F0200393611F4B9B696A
:1003000003F020037B607B681C4B9B691B4A43F016
:1003100004039361194B9B6903F004033B603B6842
:1003200000224FF4F851164800F016FD0123BB607F
:10033000144BFB6000233B6107F10803194610488A
:1003400000F08EFB4FF4F853BB600123FB600023E9
:100350003B6102237B6107F108031946084800F05E
:100360007FFB00220021062000F04FFB062000F05A
:1003700068FB00BF1837BD4680BD00BF00100240BB
:10038000000801400000111080B584B000AF0346A2
:10039000FB800023FB60FB88012B11D10A4B1B68FB
:1003A0004FF0FF31184601F0F1FEFB68002B07D03B
:1003B000064B4FF080521A60BFF34F8FBFF36F8F21
:1003C00000BF1037BD4680BD2C03002004ED00E0C7
:1003D00080B582B000AF786001224FF400711C48F4
:1003E00000F0BAFC1B4B1B684FF0FF31184601F0C0
:1003F0005DFF0346012B26D100224FF40071144803
:1004000000F0AAFC01224FF48061114800F0A4FC26
:1004100041F2883000F020FA00224FF480610C484D
:1004200000F09AFC01224FF40071094800F094FC9E
:100430004FF47A7000F010FA064B1868002300227F
:10044000002101F0A1FD41F2883002F0EFFAC9E786
:10045000000801402803002080B582B000AF78601A
:1004600001224FF400611C4800F076FC1B4B1B6816
:100470004FF0FF31184601F019FF0346012B26D13A
:1004800000224FF40061144800F066FC01224FF492
:100490008051114800F060FC41F2883000F0DCF936
:1004A00000224FF480510C4800F056FC01224FF41A
:1004B0000061094800F050FC4FF47A7000F0CCF96C
:1004C000064B186800230022002101F05DFD41F277
:1004D000883002F0ABFAC9E7000801402803002089
:1004E00080B582B000AF78602E4B1B684FF0FF31B3
:1004F000184601F0DBFE0346012B4ED140F6B83022
:1005000000F0AAF900224FF48061274800F024FC93
:1005100001224FF40071244800F01EFC00224FF429
:100520008051214800F018FC01224FF400611E4860
:1005300000F012FC4FF4FA6000F08EF901224FF443
:100540008071194800F008FC4FF47A6000F084F9DB
:1005500000224FF48071144800F0FEFB4FF4FA7053
:1005600000F07AF901224FF480710F4800F0F4FB9B
:100570004FF4FA7000F070F900224FF480710A48CD
:1005800000F0EAFB4FF47A7000F066F9074B186848
:1005900000230022002101F0F7FC012002F046FABE
:1005A000A2E700BF2C030020000801402803002020
:1005B00080B582B000AF78607B681B68B3F1804F74
:1005C00001D100F02DF900BF0837BD4680BD80B4D1
:1005D00000AF72B600BF00BFFDE7000080B584B079
:1005E00000AF184B9B69174A43F001039361154B09
:1005F0009B6903F00103BB60BB68124BDB69114AC6
:1006000043F08053D3610F4BDB6903F080537B6071
:100610007B6800220F216FF0010000F0F6F90A4B11
:100620005B68FB60FB6823F0E063FB60FB6843F002
:100630000073FB60044AFB68536000BF1037BD467F
:1006400080BD00BF001002400000014080B58EB0A8
:1006500000AF78600023FB620023BB62002387F8B1
:100660003330344BDB69334A43F00103D361314B00
:10067000DB6903F00103FB60FB6807F1100207F17F
:1006800014031146184600F075FF3B6AFB62FB6AD3
:10069000002B03D100F05AFF786304E000F056FF0E
:1006A00003465B007B637B6B234AA2FB03239B0C0B
:1006B000013BBB62214B4FF080421A601F4B40F25E
:1006C000E732DA601D4ABB6A53601C4B00221A6194
:1006D0001A4B00229A60194B00229A61174800F0C9
:1006E00097FF034687F8333097F83330002B1BD140
:1006F000124800F0E5FF034687F8333097F83330AF
:10070000002B11D11C2000F09CF97B680F2B08D81E
:10071000002279681C2000F078F9094A7B68136090
:1007200002E0012387F8333097F833301846383722
:10073000BD4680BD0010024083DE1B433003002015
:100740000400002080B400AF00BFFDE780B400AF1C
:1007500000BFFDE780B400AF00BFFDE780B400AF8D
:1007600000BFFDE780B400AF00BFFDE780B400AF7D
:1007700000BFBD4680BC704780B500AF012000F0CF
:1007800003FB00BF80BD000080B500AF024800F051
:10079000E3FF00BF80BD00BF3003002080B400AF86
:1007A00000BFBD4680BC7047FFF7F8FF0B480C49FF
:1007B0000C4A002302E0D458C4500433C4188C42BD
:1007C000F9D3094A094C002301E013600432A24224
:1007D000FBD303F0DFFBFFF7D3FC704700000020E2
:1007E000600000207041000860000020101200200E
:1007F000FEE7000080B500AF084B1B68074A43F0D6
:1008000010031360032000F0F5F80F20FFF71EFF20
:10081000FFF7E4FE0023184680BD00BF0020024021
:1008200080B400AF054B1B781A46054B1B68134478
:10083000034A136000BFBD4680BC7047080000201B
:100840007803002080B400AF024B1B681846BD46F9
:1008500080BC70477803002080B584B000AF78601A
:10086000FFF7F0FFB8607B68FB60FB68B3F1FF3F08
:1008700005D00A4B1B781A46FB681344FB6000BF87
:10088000FFF7E0FF0246BB68D31AFA689A42F7D82E
:1008900000BF00BF1037BD4680BD00BF080000206C
:1008A00080B485B000AF78607B6803F00703FB601D
:1008B0000C4BDB68BB60BA684FF6FF031340BB60AC
:1008C000FB681A02BB68134343F0BF6343F4003371
:1008D000BB60044ABB68D36000BF1437BD4680BC10
:1008E000704700BF00ED00E080B400AF044BDB6850
:1008F0001B0A03F007031846BD4680BC704700BFC3
:1009000000ED00E080B483B000AF0346FB7197F9BF
:100910000730002B0BDBFB7903F01F02064997F928
:1009200007305B09012000FA02F241F8232000BFE2
:100930000C37BD4680BC704700E100E080B483B056
:1009400000AF03463960FB7197F90730002B0ADBD3
:100950003B68DAB20C4997F907301201D2B20B4466
:1009600083F800230AE03B68DAB20849FB7903F018
:100970000F03043B1201D2B20B441A7600BF0C37AE
:10098000BD4680BC704700BF00E100E000ED00E024
:1009900080B489B000AFF860B9607A60FB6803F09A
:1009A0000703FB61FB69C3F10703042B28BF042382
:1009B000BB61FB690433062B02D9FB69033B00E0F2
:1009C00000237B614FF0FF32BB6902FA03F3DA4385
:1009D000BB681A407B699A404FF0FF317B6901FA8E
:1009E00003F3D9437B680B40134318462437BD46B5
:1009F00080BC704780B582B000AF78607868FFF740
:100A00004FFF00BF0837BD4680BD80B586B000AF40
:100A10000346B9607A60FB7300237B61FFF764FFD4
:100A200078617A68B9687869FFF7B2FF024697F98A
:100A30000F3011461846FFF781FF00BF1837BD463B
:100A400080BD80B582B000AF0346FB7197F90730D7
:100A50001846FFF757FF00BF0837BD4680BD0000AE
:100A600080B48BB000AF7860396000237B620023D4
:100A70003B6261E101227B6A02FA03F3FB613B689E
:100A80001B68FA691340BB61BA69FB699A4240F07E
:100A900050813B685B68974A93425ED0954A934287
:100AA00075D8954A934258D0934A93426FD8934A47
:100AB000934252D0914A934269D8914A93424CD082
:100AC0008F4A934263D88F4A934246D08D4A9342CD
:100AD0005DD8122B2AD8122B59D801A252F823F034
:100AE0005B0B0008350B0008470B0008890B00085A
:100AF0008F0B00088F0B00088F0B00088F0B00086E
:100B00008F0B00088F0B00088F0B00088F0B00085D
:100B10008F0B00088F0B00088F0B00088F0B00084D
:100B20008F0B00083D0B0008510B0008764A9342DA
:100B300013D02CE03B68DB683B6229E03B68DB6854
:100B400004333B6224E03B68DB6808333B621FE010
:100B50003B68DB680C333B621AE03B689B68002B08
:100B600002D104233B6213E03B689B68012B05D153
:100B700008233B627B68FA691A6109E008233B623B
:100B80007B68FA695A6103E000233B6200E000BF22
:100B9000BB69FF2B01D87B6801E07B6804337B6174
:100BA000BB69FF2B02D87B6A9B0002E07B6A083B93
:100BB0009B003B617B691A680F213B6901FA03F3D3
:100BC000DB431A40396A3B6901FA03F31A437B6934
:100BD0001A603B685B6803F08053002B00F0A9802B
:100BE0004A4B9B69494A43F001039361474B9B6918
:100BF00003F00103BB60BB68454A7B6A9B08023374
:100C000052F82330FB607B6A03F003039B000F2242
:100C100002FA03F3DB43FA681340FB607B683D4A4A
:100C200093420DD07B683C4A934207D07B683B4A95
:100C3000934201D1022304E0032302E0012300E0F8
:100C400000237A6A02F0030292009340FA68134389
:100C5000FB602F497B6A9B080233FA6841F8232026
:100C60003B685B6803F48013002B06D02C4B9A681A
:100C70002B49BB6913438B6006E0294B9A68BB691B
:100C8000DB43274913408B603B685B6803F4001328
:100C9000002B06D0224BDA682149BB691343CB6095
:100CA00006E01F4BDA68BB69DB431D491340CB608C
:100CB0003B685B6803F40033002B06D0184B5A687E
:100CC0001749BB6913434B6006E0154B5A68BB6973
:100CD000DB43134913404B603B685B6803F480338C
:100CE000002B1FD00E4B1A680D49BB6913430B60D4
:100CF0001FE000BF00003210000031100000221081
:100D0000000021100000121000001110001002401D
:100D10000000014000080140000C014000100140AB
:100D2000000401400B4B1A68BB69DB4309491340BF
:100D30000B607B6A01337B623B681A687B6A22FA2C
:100D400003F3002B7FF496AE00BF00BF2C37BD46E7
:100D500080BC70470004014080B483B000AF78606D
:100D60000B467B8013467B707B78002B03D07A8800
:100D70007B681A6103E07B881A047B681A6100BFF4
:100D80000C37BD4680BC704780B582B000AF0346CB
:100D9000FB80084B5A69FB881340002B06D0054A9C
:100DA000FB885361FB881846FFF7EEFA00BF08374F
:100DB000BD4680BD0004014080B586B000AF7860BC
:100DC0007B68002B01D1012372E27B681B6803F072
:100DD0000103002B00F08780924B5B6803F00C034B
:100DE000042B0CD08F4B5B6803F00C03082B12D143
:100DF0008C4B5B6803F48033B3F5803F0BD1894B98
:100E00001B6803F40033002B6CD07B685B68002BFD
:100E100068D101234CE27B685B68B3F5803F06D163
:100E2000804B1B687F4A43F4803313602EE07B685D
:100E30005B68002B0CD17B4B1B687A4A23F4803310
:100E40001360784B1B68774A23F4802313601DE0FE
:100E50007B685B68B3F5A02F0CD1724B1B68714A9D
:100E600043F4802313606F4B1B686E4A43F4803356
:100E700013600BE06B4B1B686A4A23F480331360EA
:100E8000684B1B68674A23F4802313607B685B68A8
:100E9000002B13D0FFF7D6FC386108E0FFF7D2FC37
:100EA00002463B69D31A642B01D9032300E25D4B50
:100EB0001B6803F40033002BF0D014E0FFF7C2FCF2
:100EC000386108E0FFF7BEFC02463B69D31A642B89
:100ED00001D90323ECE1534B1B6803F40033002BCF
:100EE000F0D100E000BF7B681B6803F00203002B19
:100EF00063D04C4B5B6803F00C03002B0BD0494BC9
:100F00005B6803F00C03082B1CD1464B5B6803F4B1
:100F10008033002B16D1434B1B6803F00203002BD8
:100F200005D07B681B69012B01D00123C0E13D4B3B
:100F30001B6823F0F8027B685B69DB0039491343C7
:100F40000B603AE07B681B69002B20D0364B0122F6
:100F50001A60FFF777FC386108E0FFF773FC024680
:100F60003B69D31A022B01D90323A1E12D4B1B6846
:100F700003F00203002BF0D02A4B1B6823F0F80289
:100F80007B685B69DB00274913430B6015E0264B48
:100F900000221A60FFF756FC386108E0FFF752FCA8
:100FA00002463B69D31A022B01D9032380E11D4B72
:100FB0001B6803F00203002BF0D17B681B6803F071
:100FC0000803002B3AD07B689B69002B19D0174B84
:100FD00001221A60FFF736FC386108E0FFF732FCA7
:100FE00002463B69D31A022B01D9032360E10D4B62
:100FF0005B6A03F00203002BF0D0012000F0EAFA54
:101000001CE00A4B00221A60FFF71CFC38610FE05D
:10101000FFF718FC02463B69D31A022B08D90323B9
:1010200046E100BF001002400000424280044242FC
:10103000924B5B6A03F00203002BE9D17B681B68CB
:1010400003F00403002B00F0A6800023FB758B4BFC
:10105000DB6903F08053002B0DD1884BDB69874A95
:1010600043F08053D361854BDB6903F08053BB6051
:10107000BB680123FB75824B1B6803F48073002B54
:1010800018D17F4B1B687E4A43F480731360FFF7CF
:10109000D9FB386108E0FFF7D5FB02463B69D31A5C
:1010A000642B01D9032303E1754B1B6803F48073A0
:1010B000002BF0D07B68DB68012B06D16F4B1B6ADD
:1010C0006E4A43F0010313622DE07B68DB68002B5E
:1010D0000CD16A4B1B6A694A23F001031362674B08
:1010E0001B6A664A23F0040313621CE07B68DB681A
:1010F000052B0CD1614B1B6A604A43F00403136259
:101100005E4B1B6A5D4A43F0010313620BE05B4BCD
:101110001B6A5A4A23F001031362584B1B6A574A51
:1011200023F0040313627B68DB68002B15D0FFF704
:1011300089FB38610AE0FFF785FB02463B69D31A59
:1011400041F28832934201D90323B1E04B4B1B6A31
:1011500003F00203002BEED014E0FFF773FB3861BD
:101160000AE0FFF76FFB02463B69D31A41F288326F
:10117000934201D903239BE0404B1B6A03F0020317
:10118000002BEED1FB7D012B05D13C4BDB693B4AAB
:1011900023F08053D3617B68DB69002B00F08780EC
:1011A000364B5B6803F00C03082B61D07B68DB696E
:1011B000022B46D1334B00221A60FFF743FB386104
:1011C00008E0FFF73FFB02463B69D31A022B01D927
:1011D00003236DE0294B1B6803F00073002BF0D153
:1011E0007B681B6AB3F5803F08D1244B5B6823F40E
:1011F00000327B689B68214913434B601F4B5B683F
:1012000023F474127B68196A7B685B6A0B431B4981
:1012100013434B601B4B01221A60FFF713FB38612D
:1012200008E0FFF70FFB02463B69D31A022B01D9F6
:1012300003233DE0114B1B6803F00073002BF0D03B
:1012400035E0104B00221A60FFF7FCFA386108E025
:10125000FFF7F8FA02463B69D31A022B01D90323A0
:1012600026E0064B1B6803F00073002BF0D11EE054
:101270007B68DB69012B07D1012319E000100240D4
:1012800000700040600042420B4B5B68FB60FB68F3
:1012900003F480327B681B6A9A4206D1FB6803F430
:1012A00070127B685B6A9A4201D0012300E0002340
:1012B00018461837BD4680BD0010024080B584B086
:1012C00000AF786039607B68002B01D10123D0E04A
:1012D0006A4B1B6803F007033A689A4210D9674BC0
:1012E0001B6823F0070265493B6813430B60634B9F
:1012F0001B6803F007033A689A4201D00123B8E063
:101300007B681B6803F00203002B20D07B681B68FE
:1013100003F00403002B05D0594B5B68584A43F493
:10132000E06353607B681B6803F00803002B05D063
:10133000534B5B68524A43F460535360504B5B68B5
:1013400023F0F0027B689B684D4913434B607B6838
:101350001B6803F00103002B40D07B685B68012B06
:1013600007D1474B1B6803F40033002B15D1012331
:101370007FE07B685B68022B07D1414B1B6803F061
:101380000073002B09D1012373E03D4B1B6803F070
:101390000203002B01D101236BE0394B5B6823F082
:1013A00003027B685B68364913434B60FFF74AFAD8
:1013B000F8600AE0FFF746FA0246FB68D31A41F2EA
:1013C0008832934201D9032353E02D4B5B6803F02D
:1013D0000C027B685B689B009A42EBD1274B1B6831
:1013E00003F007033A689A4210D2244B1B6823F09B
:1013F000070222493B6813430B60204B1B6803F034
:1014000007033A689A4201D0012332E07B681B68E7
:1014100003F00403002B08D0194B5B6823F4E0624F
:101420007B68DB68164913434B607B681B6803F0DD
:101430000803002B09D0124B5B6823F460527B68D1
:101440001B69DB000E4913434B6000F021F8024694
:101450000B4B5B681B0903F00F030A49CB5C22FAB4
:1014600003F3094A1360094B1B681846FFF7EEF8AF
:10147000002318461037BD4680BD00BF0020024043
:10148000001002403C410008000000200400002041
:1014900080B487B000AF0023FB600023BB60002353
:1014A0007B6100237B6000233B611E4B5B68FB601C
:1014B000FB6803F00C03042B02D0082B03D027E0B9
:1014C000194B3B6127E0FB689B0C03F00F03174AA5
:1014D000D35C7B60FB6803F48033002B10D0114B8E
:1014E0005B685B0C03F00103114AD35CBB607B6853
:1014F0000D4A03FB02F2BB68B2FBF3F37B6104E02D
:101500007B680C4A02FB03F37B617B693B6102E071
:10151000054B3B6100BF3B6918461C37BD4680BC8C
:10152000704700BF0010024000127A0054410008CA
:101530006441000800093D0080B400AF024B1B6805
:101540001846BD4680BC70470000002080B500AF43
:10155000FFF7F2FF0246054B5B681B0A03F0070327
:101560000349CB5C22FA03F3184680BD0010024009
:101570004C41000880B483B000AF786039607B686C
:101580000F221A60114B5B6803F003027B685A60FC
:101590000E4B5B6803F0F0027B689A600B4B5B6854
:1015A00003F4E0627B68DA60084B5B68DB0803F4F5
:1015B000E0627B681A61064B1B6803F007023B6818
:1015C0001A6000BF0C37BD4680BC70470010024057
:1015D0000020024080B485B000AF78600A4B1B68E1
:1015E0000A4AA2FB03235B0A7A6802FB03F3FB604F
:1015F00000BFFB685A1EFA60002BF9D100BF00BF84
:101600001437BD4680BC704700000020D34D6210E7
:1016100080B582B000AF78607B68002B01D10123D8
:1016200041E07B6893F83D30DBB2002B06D17B684C
:10163000002283F83C20786800F039F87B680222A9
:1016400083F83D207B681A687B680433194610468E
:1016500000F096F97B68012283F846207B6801221E
:1016600083F83E207B68012283F83F207B680122BB
:1016700083F840207B68012283F841207B680122A7
:1016800083F842207B68012283F843207B68012293
:1016900083F844207B68012283F845207B6801227F
:1016A00083F83D20002318460837BD4680BD80B42E
:1016B00083B000AF786000BF0C37BD4680BC704778
:1016C00080B485B000AF78607B6893F83D30DBB2C2
:1016D000012B01D0012335E07B68022283F83D20F5
:1016E0007B681B68DA687B681B6842F00102DA607D
:1016F0007B681B68164A934209D07B681B68B3F16C
:10170000804F04D07B681B68124A934211D17B68DA
:101710001B689B6803F00703FB60FB68062B10D077
:101720007B681B681A687B681B6842F001021A60BC
:1017300007E07B681B681A687B681B6842F001023F
:101740001A60002318461437BD4680BC704700BF9E
:10175000002C01400004004080B584B000AF7860E8
:101760007B681B68DB68FB607B681B681B69BB6070
:10177000BB6803F00203002B20D0FB6803F00203D8
:10178000002B1BD07B681B686FF002021A617B681C
:1017900001221A777B681B689B6903F00303002B07
:1017A00003D0786800F0D1F805E0786800F0C4F85C
:1017B000786800F0D3F87B6800221A77BB6803F0E2
:1017C0000403002B20D0FB6803F00403002B1BD084
:1017D0007B681B686FF004021A617B6802221A772B
:1017E0007B681B689B6903F44073002B03D0786807
:1017F00000F0ABF805E0786800F09EF8786800F03B
:10180000ADF87B6800221A77BB6803F00803002B51
:1018100020D0FB6803F00803002B1BD07B681B68FB
:101820006FF008021A617B6804221A777B681B68D4
:10183000DB6903F00303002B03D0786800F085F820
:1018400005E0786800F078F8786800F087F87B6841
:1018500000221A77BB6803F01003002B20D0FB682E
:1018600003F01003002B1BD07B681B686FF0100285
:101870001A617B6808221A777B681B68DB6903F4AE
:101880004073002B03D0786800F05FF805E07868BB
:1018900000F052F8786800F061F87B6800221A774F
:1018A000BB6803F00103002B0CD0FB6803F00103BD
:1018B000002B07D07B681B686FF001021A61786803
:1018C000FEF776FEBB6803F08003002B0CD0FB68AC
:1018D00003F08003002B07D07B681B686FF0800249
:1018E0001A61786800F0B9F8BB6803F04003002B78
:1018F0000CD0FB6803F04003002B07D07B681B680B
:101900006FF040021A61786800F031F8BB6803F0AC
:101910002003002B0CD0FB6803F02003002B07D022
:101920007B681B686FF020021A61786800F08CF801
:1019300000BF1037BD4680BD80B483B000AF786073
:1019400000BF0C37BD4680BC704780B483B000AF89
:10195000786000BF0C37BD4680BC704780B483B050
:1019600000AF786000BF0C37BD4680BC704780B4C4
:1019700083B000AF786000BF0C37BD4680BC7047B5
:1019800080B485B000AF786039607B681B68FB600D
:101990007B682B4A934207D07B68B3F1804F03D01A
:1019A0007B68284A934208D1FB6823F07003FB60F0
:1019B0003B685B68FA681343FB607B68204A93428C
:1019C00007D07B68B3F1804F03D07B681D4A9342F8
:1019D00008D1FB6823F44073FB603B68DB68FA685E
:1019E0001343FB60FB6823F080023B685B69134391
:1019F000FB607B68FA681A603B689A687B68DA6209
:101A00003B681A687B689A627B680D4A934203D1EF
:101A10003B681A697B681A637B6801225A617B689C
:101A20001B6903F00103002B05D07B681B6923F0C1
:101A300001027B681A6100BF1437BD4680BC704745
:101A4000002C01400004004080B483B000AF7860F7
:101A500000BF0C37BD4680BC704780B483B000AF78
:101A6000786000BF0C37BD4680BC704780B485B03D
:101A700000AF0346FB800023FB60B7F90630842BE0
:101A800005D0B7F90620FB6813440333FB60FB68FD
:101A900018461437BD4680BC704780B500AF00F0D3
:101AA000FBFF0023184680BDF0B589B004AF786015
:101AB00039607B685B69002B20D07B689B69002BB9
:101AC0001CD07B685C687B681D687B681E697B68CE
:101AD000B3F908301846FFF7C9FF01467B685B6918
:101AE0007A6892690292019300913B6832462946D6
:101AF000204600F0ECFD0346FB601CE07B685C6860
:101B00007B681D687B681B699EB27B68B3F90830EF
:101B10001846FFF7ABFF024607F10C030193009252
:101B20003B6832462946204600F031FE0346012B31
:101B300001D0002300E0FB6818461437BD46F0BD15
:101B400080B586B002AF786039607B685B68002B37
:101B50000FD03B68012B0AD17B685B68032200929F
:101B600000220021012000F037F9034616E000238F
:101B700014E03B68012B10D103220021012000F06A
:101B8000A8F9F860FB68002B05D000230022002193
:101B9000F86800F0F9F9FB6800E0002318461037F8
:101BA000BD4680BD80B483B000AF78607B6803F130
:101BB00008027B685A607B684FF0FF329A607B684E
:101BC00003F108027B68DA607B6803F108027B6836
:101BD0001A617B6800221A6000BF0C37BD4680BCCA
:101BE000704780B483B000AF78607B6800221A61D0
:101BF00000BF0C37BD4680BC704780B485B000AFD5
:101C0000786039607B685B68FB603B68FA685A60A3
:101C1000FB689A683B689A60FB689B683A685A6000
:101C2000FB683A689A603B687A681A617B681B684F
:101C30005A1C7B681A6000BF1437BD4680BC7047D1
:101C400080B485B000AF786039603B681B68BB60CA
:101C5000BB68B3F1FF3F03D17B681B69FB600CE0FD
:101C60007B680833FB6002E0FB685B68FB60FB6835
:101C70005B681B68BA689A42F6D2FB685A683B6890
:101C80005A603B685B683A689A603B68FA689A6099
:101C9000FB683A685A603B687A681A617B681B681F
:101CA0005A1C7B681A6000BF1437BD4680BC704761
:101CB00080B485B000AF78607B681B69FB607B688F
:101CC0005B687A6892689A607B689B687A685268F9
:101CD0005A60FB685B687A689A4203D17B689A68AD
:101CE000FB685A607B6800221A61FB681B685A1EF9
:101CF000FB681A60FB681B6818461437BD4680BC39
:101D00007047000080B584B000AF786039607B68B0
:101D1000FB60FB68002B0BD14FF0500383F311885D
:101D2000BFF36F8FBFF34F8FBB6000BF00BFFDE7F6
:101D300001F0E4FDFB681A68FB68DB6BF968096C6D
:101D400001FB03F31A44FB689A60FB6800229A6364
:101D5000FB681A68FB685A60FB681A68FB68DB6BF3
:101D6000013BF968096C01FB03F31A44FB68DA6074
:101D7000FB68FF2283F84420FB68FF2283F845209C
:101D80003B68002B14D1FB681B69002B1AD0FB6841
:101D90001033184601F0D8F80346002B12D00D4B33
:101DA0004FF080521A60BFF34F8FBFF36F8F09E07F
:101DB000FB6810331846FFF7F5FEFB68243318461E
:101DC000FFF7F0FE01F0CAFD012318461037BD46AB
:101DD00080BD00BF04ED00E080B58EB002AFF860BA
:101DE000B9607A603B60FB68002B0BD14FF0500369
:101DF00083F31188BFF36F8FBFF34F8FBB6200BFB8
:101E000000BFFDE73B68002B0BD14FF0500383F37D
:101E10001188BFF36F8FBFF34F8F7B6200BF00BF8E
:101E2000FDE77B68002B02D0BB68002B01D00123AB
:101E300000E00023002B0BD14FF0500383F31188F7
:101E4000BFF36F8FBFF34F8F3B6200BF00BFFDE753
:101E50007B68002B02D1BB68002B01D1012300E07D
:101E60000023002B0BD14FF0500383F31188BFF3F5
:101E70006F8FBFF34F8FFB6100BF00BFFDE74823AB
:101E80007B617B69482B0BD04FF0500383F31188A3
:101E9000BFF36F8FBFF34F8FBB6100BF00BFFDE784
:101EA0007B693B68FB62FB6A002B0DD0FB6A012259
:101EB00083F8462097F83820FB6A009313467A6827
:101EC000B968F86800F040F8FB6A18463037BD463C
:101ED00080BD80B58AB002AFF860B9601346FB716F
:101EE000FB68002B0BD14FF0500383F31188BFF335
:101EF0006F8FBFF34F8F3B6100BF00BFFDE7FB68F3
:101F0000BA6802FB03F3FB61FB694833184601F032
:101F1000F7FDB861BB69002B11D0BB697B617B69A0
:101F200048337B61BB69002283F84620FA79BB699C
:101F3000009313467A69B968F86800F005F8BB6940
:101F400018462037BD4680BD80B584B000AFF8602C
:101F5000B9607A60FB70BB68002B03D1BB69BA69BA
:101F60001A6002E0BB697A681A60BB69FA68DA63D2
:101F7000BB69BA681A640121B869FFF7C3FE00BFE4
:101F80001037BD4680BD000080B58EB000AFF86050
:101F9000B9607A603B6000237B63FB683B633B6B0B
:101FA000002B0BD14FF0500383F31188BFF36F8FD9
:101FB000BFF34F8FBB6200BF00BFFDE7BB68002BC4
:101FC00003D13B6B1B6C002B01D1012300E00023EC
:101FD000002B0BD14FF0500383F31188BFF36F8FA9
:101FE000BFF34F8F7B6200BF00BFFDE73B68022B52
:101FF00003D13B6BDB6B012B01D1012300E00023FC
:10200000002B0BD14FF0500383F31188BFF36F8F78
:10201000BFF34F8F3B6200BF00BFFDE701F05AF9ED
:102020000346002B02D17B68002B01D1012300E085
:102030000023002B0BD14FF0500383F31188BFF323
:102040006F8FBFF34F8FFB6100BF00BFFDE701F053
:1020500055FC3B6B9A6B3B6BDB6B9A4202D33B6844
:10206000022B29D13A68B968386B00F046FAF86259
:102070003B6B5B6A002B10D03B6B2433184600F09F
:1020800063FF0346002B13D03F4B4FF080521A6082
:10209000BFF34F8FBFF36F8F0AE0FB6A002B07D0AF
:1020A000394B4FF080521A60BFF34F8FBFF36F8FE1
:1020B00001F054FC012363E07B68002B03D101F0A5
:1020C0004DFC00235CE07B6B002B06D107F1140371
:1020D000184600F09DFF01237B6301F03FFC00F0F8
:1020E00045FD01F00BFC3B6B93F844305BB2B3F160
:1020F000FF3F03D13B6B002283F844203B6B93F8F6
:1021000045305BB2B3F1FF3F03D13B6B002283F854
:10211000452001F023FC3A1D07F11403114618462F
:1021200000F08CFF0346002B24D1386B00F0B7FA87
:102130000346002B18D03B6B10337A6811461846C3
:1021400000F0DCFE386B00F042FA00F01DFD0346A3
:10215000002B7FF47CAF0C4B4FF080521A60BFF322
:102160004F8FBFF36F8F72E7386B00F030FA00F0DB
:102170000BFD6CE7386B00F02AFA00F005FD002338
:1021800018463837BD4680BD04ED00E080B58EB0FE
:1021900000AF786039607B683B633B6B002B0BD1F1
:1021A0004FF0500383F31188BFF36F8FBFF34F8F4E
:1021B0003B6200BF00BFFDE73B6B1B6C002B0BD0ED
:1021C0004FF0500383F31188BFF36F8FBFF34F8F2E
:1021D000FB6100BF00BFFDE73B6B1B68002B03D119
:1021E0003B6B9B68002B01D1012300E00023002BF7
:1021F0000BD14FF0500383F31188BFF36F8FBFF300
:102200004F8FBB6100BF00BFFDE701F039FCEFF36A
:1022100011824FF0500383F31188BFF36F8FBFF328
:102220004F8F7A613B617B69FB623B6B9B6BBB624F
:102230003B6BDB6BBA6A9A422BD23B6B93F845300F
:1022400087F82730BB6A5A1C3B6B9A6397F9273093
:10225000B3F1FF3F12D13B6B5B6A002B16D03B6B97
:102260002433184600F070FE0346002B0ED03B6866
:10227000002B0BD03B6801221A6007E097F827304B
:102280000133DBB25AB23B6B83F8452001237B63F9
:1022900001E000237B63FB6AFB60FB6883F311882A
:1022A00000BF7B6B18463837BD4680BD80B58EB009
:1022B00000AF7860396000237B637B68FB6200239A
:1022C0003B63FB6A002B0BD14FF0500383F3118863
:1022D000BFF36F8FBFF34F8F3B6200BF00BFFDE7BF
:1022E000FB6A1B6C002B0BD04FF0500383F311885B
:1022F000BFF36F8FBFF34F8FFB6100BF00BFFDE7E0
:1023000000F0E8FF0346002B02D13B68002B01D10F
:10231000012300E00023002B0BD14FF0500383F387
:102320001188BFF36F8FBFF34F8FBB6100BF00BF3A
:10233000FDE701F0E3FAFB6A9B6BBB62BB6A002B13
:1023400024D0BB6A5A1EFB6A9A63FB6A1B68002B87
:1023500004D101F06BF90246FB6A9A60FB6A1B69C3
:10236000002B0FD0FB6A1033184600F0EDFD03463A
:10237000002B07D0544B4FF080521A60BFF34F8FA1
:10238000BFF36F8F01F0EAFA012398E03B68002B5E
:1023900012D13B6B002B0BD04FF0500383F311880D
:1023A000BFF36F8FBFF34F8F7B6100BF00BFFDE7AF
:1023B00001F0D4FA002382E07B6B002B06D107F1F9
:1023C0000C03184600F024FE01237B6301F0C6FADB
:1023D00000F0CCFB01F092FAFB6A93F844305BB258
:1023E000B3F1FF3F03D1FB6A002283F84420FB6A6C
:1023F00093F845305BB2B3F1FF3F03D1FB6A002293
:1024000083F8452001F0AAFA3A4607F10C03114679
:10241000184600F013FE0346002B32D1F86A00F094
:1024200028F90346002B26D0FB6A1B68002B09D134
:1024300001F064FAFB6A9B68184600F069FF386394
:1024400001F08CFAFB6A24333A681146184600F012
:1024500055FDF86A00F0BBF800F096FB0346002B30
:102460007FF467AF184B4FF080521A60BFF34F8F65
:10247000BFF36F8F5DE7F86A00F0A9F800F084FB06
:1024800057E7F86A00F0A3F800F07EFBF86A00F066
:10249000F0F80346002B3FF44CAF3B6B002B0DD004
:1024A00001F02CFAF86A00F011F87862FB6A9B6878
:1024B000796A184601F02AF801F050FA002318460C
:1024C0003837BD4680BD00BF04ED00E080B485B064
:1024D00000AF78607B685B6A002B06D07B681B6B63
:1024E0001B68C3F10703FB6001E00023FB60FB688E
:1024F00018461437BD4680BC704780B586B000AF23
:10250000F860B9607A6000237B61FB689B6B3B617C
:10251000FB681B6C002B0DD1FB681B68002B4DD199
:10252000FB689B68184600F069FF7861FB68002231
:102530009A6043E07B68002B19D1FB685868FB6800
:102540001B6C1A46B96801F04BFDFB685A68FB68C2
:102550001B6C1A44FB685A60FB685A68FB689B68EE
:102560009A422BD3FB681A68FB685A6026E0FB6826
:10257000D868FB681B6C1A46B96801F031FDFB682E
:10258000DA68FB681B6C5B421A44FB68DA60FB6824
:10259000DA68FB681B689A4207D2FB689A68FB6896
:1025A0001B6C5B421A44FB68DA607B68022B05D126
:1025B0003B69002B02D03B69013B3B613B695A1CE4
:1025C000FB689A637B6918461837BD4680BD80B5A5
:1025D00084B000AF786001F091F97B6893F84530E2
:1025E000FB7311E07B685B6A002B12D07B6824339D
:1025F000184600F0A9FC0346002B01D000F082FD34
:10260000FB7B013BDBB2FB7397F90F30002BE9DC5E
:1026100000E000BF7B68FF2283F8452001F09EF9AF
:1026200001F06CF97B6893F84430BB7311E07B6870
:102630001B69002B12D07B681033184600F084FC15
:102640000346002B01D000F05DFDBB7B013BDBB2FC
:10265000BB7397F90E30002BE9DC00E000BF7B680C
:10266000FF2283F8442001F079F900BF1037BD46FE
:1026700080BD80B584B000AF786001F03FF97B6821
:102680009B6B002B02D10123FB6001E00023FB6068
:1026900001F064F9FB6818461037BD4680BD80B56F
:1026A00084B000AF786001F029F97B689A6B7B6891
:1026B000DB6B9A4202D10123FB6001E00023FB6047
:1026C00001F04CF9FB6818461037BD4680BD80B557
:1026D0008EB004AFF860B9607A603B607B6B002B12
:1026E0000BD14FF0500383F31188BFF36F8FBFF30B
:1026F0004F8F3B6200BF00BFFDE7BB6B002B0BD1D0
:102700004FF0500383F31188BFF36F8FBFF34F8FE8
:10271000FB6100BF00BFFDE7A0233B613B69A02B2D
:102720000BD04FF0500383F31188BFF36F8FBFF3CB
:102730004F8FBB6100BF00BFFDE73B69BB6B002B48
:102740001ED07B6B002B1BD0BB6B7B627B6A7A6BD2
:102750001A637B6A022283F89D20002303937B6A1D
:10276000029307F1140301933B6B00933B687A6873
:10277000B968F86800F050F8786A00F0EDF801E008
:1027800000237B617B6918462837BD4680BD80B534
:102790008CB004AFF860B9603B601346FB80FB88E7
:1027A0009B00184601F0ACF978617B69002B0ED0D4
:1027B000A02001F0A5F9F861FB69002B03D0FB69AB
:1027C0007A691A6305E0786901F068FA01E000238C
:1027D000FB61FB69002B17D0FB69002283F89D2069
:1027E000FA8800230393FB690293FB6A0193BB6A97
:1027F00000933B68B968F86800F00EF8F86900F0DB
:10280000ABF80123BB6102E04FF0FF33BB61BB6952
:1028100018462037BD4680BD80B588B000AFF8604F
:10282000B9607A603B603B6B1A6B7B6803F1804355
:10283000013B9B001344BB61BB6923F00703BB61F1
:10284000BB6903F00703002B0BD04FF0500383F359
:102850001188BFF36F8FBFF34F8F7B6100BF00BF45
:10286000FDE7BB68002B1FD00023FB6112E0BA68B4
:10287000FB69134419783A6BFB69134434330A46F5
:102880001A70BA68FB6913441B78002B06D0FB69E9
:102890000133FB61FB690F2BE9D900E000BF3B6B03
:1028A000002283F8432003E03B6B002283F83420AE
:1028B000BB6A062B01D90623BB623B6BBA6ADA629C
:1028C0003B6BBA6A5A643B6B00229A643B6B0433DD
:1028D0001846FFF786F93B6B18331846FFF781F966
:1028E0003B6B3A6B1A61BB6AC3F107023B6B9A619F
:1028F0003B6B3A6B5A623B6B0022C3F898203B6BF0
:10290000002283F89C203B6B4C334C22002118465C
:1029100001F0E2FA3B6B0D4A1A653B6B0C4A5A65B3
:102920003B6B0C4A9A653A68F968B86900F0F8FEA2
:1029300002463B6B1A60FB6A002B02D0FB6A3A6BC3
:102940001A6000BF2037BD4680BD00BFD0100020F8
:1029500038110020A011002080B582B000AF78604F
:1029600000F0CCFF2A4B1B680133294A1360294B26
:102970001B68002B09D1274A7B681360244B1B6816
:10298000012B10D100F0E2FB0DE0234B1B68002B64
:1029900009D1204B1B68DA6A7B68DB6A9A4202D84D
:1029A0001C4A7B6813601D4B1B6801331B4A136074
:1029B0007B68DB6A01229A40194B1B681343184A53
:1029C00013607B68DA6A13469B0013449B00154A28
:1029D0001A447B68043319461046FFF70EF900F0DD
:1029E000BDFF0D4B1B68002B0ED00A4B1B68DA6A2B
:1029F0007B68DB6A9A4207D20B4B4FF080521A6019
:102A0000BFF34F8FBFF36F8F00BF0837BD4680BD48
:102A10007C0400207C03002088040020980400200F
:102A2000840400208003002004ED00E080B584B021
:102A300000AF78600023FB607B68002B18D0144B3C
:102A40001B68002B0BD04FF0500383F31188BFF3AA
:102A50006F8FBFF34F8FBB6000BF00BFFDE700F07B
:102A600085F80021786800F0F5FD00F08DF8F86039
:102A7000FB68002B07D1074B4FF080521A60BFF361
:102A80004F8FBFF36F8F00BF1037BD4680BD00BFB3
:102A9000A404002004ED00E080B58AB004AF002358
:102AA000BB6000237B603A46391D07F108031846D6
:102AB000FDF74EFB39687B68BA68029201930023E8
:102AC000009300230A4621492148FFF700FE0346F0
:102AD000204A13601F4B1B68002B02D001237B612F
:102AE00001E000237B617B69012B1BD14FF0500378
:102AF00083F31188BFF36F8FBFF34F8F3B6100BF2C
:102B0000154B1B684C33154A1360154B4FF0FF32C1
:102B10001A60144B01221A60134B00221A6000F055
:102B20007BFE0FE07B69B3F1FF3F0BD14FF0500309
:102B300083F31188BFF36F8FBFF34F8FFB6000BF2C
:102B400000BFFDE700BF1837BD4680BD3441000817
:102B50001D310008A00400207C030020100000208C
:102B60009C040020880400208004002080B400AF72
:102B7000044B1B680133034A136000BFBD4680BC91
:102B8000704700BFA404002080B584B000AF0023CC
:102B9000FB600023BB60424B1B68002B0BD14FF046
:102BA000500383F31188BFF36F8FBFF34F8F3B60E8
:102BB00000BF00BFFDE700F0A1FE394B1B68013BE1
:102BC000374A1360364B1B68002B61D1354B1B68AD
:102BD000002B5DD02EE0344BDB68DB68FB60FB68CC
:102BE00018331846FFF764F8FB6804331846FFF7FC
:102BF0005FF8FB68DB6A01229A402C4B1B68134389
:102C00002A4A1360FB68DA6A13469B0013449B0050
:102C1000274A1A44FB68043319461046FEF7EDFFB5
:102C2000FB68DA6A234B1B68DB6A9A4202D3224BA9
:102C300001221A601C4B1B68002BCCD1FB68002BB7
:102C400001D000F027FB1D4B1B687B607B68002BCD
:102C500010D000F037F80346002B02D0164B0122AB
:102C60001A607B68013B7B607B68002BF1D1134BC2
:102C700000221A60104B1B68002B09D00123BB6097
:102C80000F4B4FF080521A60BFF34F8FBFF36F8F1F
:102C900000F064FEBB6818461037BD4680BD00BF1B
:102CA000A40400207C0400203C04002084040020B4
:102CB000800300207C030020900400208C0400206E
:102CC00004ED00E080B586B000AF00237B614F4B80
:102CD0001B68002B40F08F804D4B1B6801333B611C
:102CE0004B4A3B6913603B69002B21D1494B1B6860
:102CF0001B68002B0BD04FF0500383F31188BFF3F8
:102D00006F8FBFF34F8F3B6000BF00BFFDE7414BAC
:102D10001B68FB60404B1B683E4A13603E4AFB68E1
:102D200013603E4B1B6801333C4A136000F0B2FA5B
:102D30003B4B1B683A699A4248D3364B1B681B6869
:102D4000002B04D1364B4FF0FF321A603EE0314B7E
:102D50001B68DB68DB68BB60BB685B687B603A69EB
:102D60007B689A4203D22E4A7B6813602EE0BB68D0
:102D700004331846FEF79CFFBB689B6A002B04D007
:102D8000BB6818331846FEF793FFBB68DB6A012265
:102D90009A40244B1B681343224A1360BB68DA6ACB
:102DA00013469B0013449B001F4A1A44BB6804331C
:102DB00019461046FEF721FFBB68DA6A1B4B1B68F9
:102DC000DB6A9A42B9D301237B61B6E7174B1B68D4
:102DD000DA6A154913469B0013449B000B441B6899
:102DE000012B01D901237B61114B1B68002B07D0FC
:102DF00001237B6104E00F4B1B6801330D4A136014
:102E00007B6918461837BD4680BD00BFA40400206A
:102E100080040020340400203804002094040020A2
:102E20009C04002084040020800300207C030020F8
:102E3000900400208C04002080B487B000AF294BA0
:102E40001B68002B03D0284B01221A6045E0264B5B
:102E500000221A60254B1B68FB60FB68B3FA83F302
:102E6000FB72FB7AC3F11F037B6121497A69134628
:102E70009B0013449B000B441B68002B0BD14FF0AD
:102E8000500383F31188BFF36F8FBFF34F8F7B60C5
:102E900000BF00BFFDE77A6913469B0013449B0007
:102EA000134A13443B613B695B685A683B695A604B
:102EB0003B695A683B6908339A4204D13B695B68B5
:102EC0005A683B695A603B695B68DB68094A136072
:102ED000084B1B684C33084A136000BF1C37BD46C3
:102EE00080BC7047A40400209004002084040020CB
:102EF000800300207C0300201000002080B584B0F7
:102F000000AF786039607B68002B0BD14FF0500325
:102F100083F31188BFF36F8FBFF34F8FFB6000BF48
:102F200000BFFDE7074B1B68183319467868FEF7AA
:102F300087FE0121386800F08DFB00BF1037BD46C9
:102F400080BD00BF7C03002080B586B000AF7860F4
:102F50007B68DB68DB683B613B69002B0BD14FF082
:102F6000500383F31188BFF36F8FBFF34F8FFB6064
:102F700000BF00BFFDE73B6918331846FEF798FE17
:102F80001D4B1B68002B1CD13B6904331846FEF710
:102F90008FFE3B69DB6A01229A40184B1B68134382
:102FA000164A13603B69DA6A13469B0013449B0080
:102FB000134A1A443B69043319461046FEF71DFEB6
:102FC00005E03B69183319460E48FEF716FE3B69CB
:102FD000DA6A0D4B1B68DB6A9A4205D901237B61D3
:102FE0000A4B01221A6001E000237B617B691846CD
:102FF0001837BD4680BD00BFA40400208404002013
:10300000800300203C0400207C030020900400206A
:1030100080B483B000AF7860064B1A687B681A6092
:10302000054B1A687B685A6000BF0C37BD4680BCF0
:10303000704700BF940400208004002080B588B051
:1030400000AF786039607B68002B0BD14FF05003E4
:1030500083F31188BFF36F8FBFF34F8F3B6100BFC6
:1030600000BFFDE73B68002B0BD14FF0500383F30B
:103070001188BFF36F8FBFF34F8FFB6000BF00BF9E
:10308000FDE700F03BFC1D4B1B68BB617B685B6888
:10309000BA69D31A7B613B681B68B3F1FF3F02D169
:1030A0000023FB6123E07B681A68154B1B689A427A
:1030B00007D07B685B68BA699A4202D30123FB613F
:1030C00015E03B681B687A699A420BD23B681A6824
:1030D0007B69D21A3B681A607868FFF799FF002372
:1030E000FB6104E03B6800221A600123FB6100F0F1
:1030F00035FCFB6918462037BD4680BD80040020A2
:103100009404002080B400AF034B01221A6000BF7A
:10311000BD4680BC704700BF9004002080B582B0DF
:1031200000AF786000F052F8064B1B68012BF9D90C
:10313000054B4FF080521A60BFF34F8FBFF36F8F74
:10314000F0E700BF8003002004ED00E080B582B00E
:1031500000AF00237B600CE07A6813469B001344A9
:103160009B00124A13441846FEF71CFD7B6801338E
:103170007B607B68062BEFD90D48FEF713FD0D48E9
:10318000FEF710FD0C48FEF70DFD0C48FEF70AFD9A
:103190000B48FEF707FD0B4B054A1A600A4B054A20
:1031A0001A6000BF0837BD4680BD00BF8003002005
:1031B0000C040020200400203C04002050040020C7
:1031C00068040020340400203804002080B582B058
:1031D00000AF19E000F092FB104BDB68DB687B600E
:1031E0007B6804331846FEF763FD0D4B1B68013BFB
:1031F0000B4A13600B4B1B68013B0A4A136000F03B
:10320000ADFB786800F010F8064B1B68002BE1D18D
:1032100000BF00BF0837BD4680BD00BF500400207E
:103220007C0400206404002080B584B000AF786086
:103230007B684C33184600F057FE7B6893F89D304E
:10324000002B08D17B681B6B184600F027FD7868BF
:1032500000F024FD19E07B6893F89D30012B03D129
:10326000786800F01BFD10E07B6893F89D30022B1E
:103270000BD04FF0500383F31188BFF36F8FBFF370
:103280004F8FFB6000BF00BFFDE700BF1037BD469A
:1032900080BD000080B483B000AF0C4B1B681B687E
:1032A000002B04D10A4B4FF0FF321A6008E0074BA5
:1032B0001B68DB68DB687B607B685B68044A1360C3
:1032C00000BF0C37BD4680BC704700BF34040020EF
:1032D0009C04002080B483B000AF0B4B1B68002B14
:1032E00002D101237B6008E0084B1B68002B02D150
:1032F00002237B6001E000237B607B6818460C376B
:10330000BD4680BC704700BF88040020A404002094
:1033100080B584B000AF78607B68BB600023FB6041
:103320007B68002B5ED0BB68DA6A314B1B68DB6AB6
:103330009A424ED2BB689B69002B06DB2C4B1B6864
:10334000DB6AC3F10702BB689A61BB685969BB6855
:10335000DA6A13469B0013449B00264A13449942A1
:103360002FD1BB6804331846FEF7A2FC0346002B9E
:103370000AD1BB68DB6A012202FA03F3DA431E4B6F
:103380001B6813401C4A1360194B1B68DA6ABB6840
:10339000DA62BB68DB6A01229A40174B1B68134351
:1033A000154A1360BB68DA6A13469B0013449B00FE
:1033B000104A1A44BB68043319461046FEF71DFC38
:1033C00004E00B4B1B68DA6ABB68DA620123FB601E
:1033D00008E0BB685A6C064B1B68DB6A9A4201D254
:1033E0000123FB60FB6818461037BD4680BD00BF57
:1033F0007C030020800300208404002080B586B078
:1034000000AF78607B683B6100237B617B68002BA9
:1034100070D03B4B1B683A699A420BD04FF0500377
:1034200083F31188BFF36F8FBFF34F8FFB6000BF33
:1034300000BFFDE73B699B6C002B0BD14FF05003A5
:1034400083F31188BFF36F8FBFF34F8FBB6000BF53
:1034500000BFFDE73B699B6C5A1E3B699A643B6960
:10346000DA6A3B695B6C9A4244D03B699B6C002BE7
:1034700040D13B6904331846FEF71AFC0346002B83
:1034800015D13B69DA6A1F4913469B0013449B0020
:103490000B441B68002B0AD13B69DB6A012202FA4C
:1034A00003F3DA43184B1B681340174A13603B6958
:1034B0005A6C3B69DA623B69DB6AC3F107023B691C
:1034C0009A613B69DB6A01229A400F4B1B681343E8
:1034D0000D4A13603B69DA6A13469B0013449B0054
:1034E000084A1A443B69043319461046FEF785FB27
:1034F00001237B617B6918461837BD4680BD00BF3C
:103500007C030020800300208404002080B588B064
:1035100000AF786039607B68BB6101237B617B68A9
:10352000002B79D0BB699B6C002B0BD14FF0500363
:1035300083F31188BFF36F8FBFF34F8FFB6000BF22
:1035400000BFFDE7BB695B6C3A689A4202D93B68F1
:10355000FB6102E0BB695B6CFB61BB69DB6AFA691A
:103560009A4259D0BB699B6C7A699A4254D12C4BD0
:103570001B68BA699A420BD14FF0500383F311884C
:10358000BFF36F8FBFF34F8FBB6000BF00BFFDE77E
:10359000BB69DB6A3B61BB69FA69DA62BB699B693B
:1035A000002B04DBFB69C3F10702BB699A61BB69AD
:1035B00059693A6913469B0013449B00194A134406
:1035C000994229D1BB6904331846FEF771FB0346C3
:1035D000002B0AD1BB69DB6A012202FA03F3DA434A
:1035E000114B1B681340104A1360BB69DB6A012250
:1035F0009A400D4B1B6813430B4A1360BB69DA6A90
:1036000013469B0013449B00064A1A44BB690433CB
:1036100019461046FEF7F1FA00BF2037BD4680BDBF
:103620007C030020800300208404002080B400AFCD
:10363000074B1B68002B04D0054B1B689A6C0132AA
:103640009A64034B1B681846BD4680BC704700BF98
:103650007C03002080B584B000AF78603960294BCE
:103660001B68FB60284B1B6804331846FEF720FBE1
:103670000346002B0BD1244B1B68DB6A012202FAA4
:1036800003F3DA43214B1B681340204A13607B6825
:10369000B3F1FF3F0AD13B68002B07D01A4B1B68E0
:1036A000043319461A48FEF7A8FA26E0FA687B6840
:1036B0001344BB60144B1B68BA685A60BA68FB6855
:1036C0009A4209D2134B1A680F4B1B6804331946F0
:1036D0001046FEF7B5FA10E00F4B1A680A4B1B684C
:1036E000043319461046FEF7ABFA0C4B1B68BA6858
:1036F0009A4202D2094ABB68136000BF1037BD4628
:1037000080BD00BF800400207C03002084040020D2
:103710006804002038040020340400209C040020A9
:1037200080B485B000AFF860B9607A60FB68043B94
:10373000FB60FB684FF080721A60FB68043BFB6023
:10374000BB6823F00102FB681A60FB68043BFB6066
:10375000084AFB681A60FB68143BFB607A68FB68E8
:103760001A60FB68203BFB60FB6818461437BD46B7
:1037700080BC70477937000880B485B000AF002363
:103780007B60124B1B68B3F1FF3F0BD04FF050032F
:1037900083F31188BFF36F8FBFF34F8FFB6000BFC0
:1037A00000BFFDE74FF0500383F31188BFF36F8F25
:1037B000BFF34F8FBB6000BF00BF7B68002BFCD006
:1037C00000BF00BF1437BD4680BC70470C0000200E
:1037D000074B19680868B0E8F00F80F30988BFF359
:1037E0006F8F4FF0000080F311884EF00D0E704780
:1037F0007C03002000BF00BF06480068006880F31B
:10380000088862B661B6BFF34F8FBFF36F8F00DFDA
:1038100000BF00BF08ED00E080B584B000AF324BC0
:10382000FB60FB681B78DBB27B60FB68FF221A70D1
:10383000FB681B78DBB2FB70FB78DBB203F0500354
:10384000DAB22A4B1A702A4B07221A6009E0284B79
:103850001B68013B264A1360FB78DBB25B00DBB2DE
:10386000FB70FB78DBB203F08003802BEFD0204BA2
:103870001B68C3F10703042B0BD04FF0500383F3F5
:103880001188BFF36F8FBFF34F8FBB6000BF00BFC6
:10389000FDE7174B1B681B02154A1360144B1B688E
:1038A00003F4E063124A13607B68DAB2FB681A70B3
:1038B000104B1B680F4A43F4700313600D4B1B68D9
:1038C0000C4A43F07043136000F0B8F80A4B002232
:1038D0001A60FFF791FFFFF7AFFAFFF74DFF0023E4
:1038E00018461037BD4680BD00E400E0A804002063
:1038F000AC04002020ED00E00C00002080B483B078
:1039000000AF4FF0500383F31188BFF36F8FBFF305
:103910004F8F7B6000BF0F4B1B6801330D4A136054
:103920000C4B1B68012B10D10B4B1B68DBB2002B1F
:103930000BD04FF0500383F31188BFF36F8FBFF3A9
:103940004F8F3B6000BF00BFFDE700BF0C37BD4697
:1039500080BC70470C00002004ED00E080B483B010
:1039600000AF124B1B68002B0BD14FF0500383F3B9
:103970001188BFF36F8FBFF34F8F7B6000BF00BF15
:10398000FDE70A4B1B68013B084A1360074B1B68A5
:10399000002B05D100233B603B6883F3118800BFF7
:1039A00000BF0C37BD4680BC704700BF0C00002034
:1039B000EFF30980BFF36F8F0D4B1A6820E9F00F0A
:1039C00010602DE908404FF0500080F31188FFF798
:1039D00033FA4FF0000080F31188BDE80840196801
:1039E0000868B0E8F00F80F30988BFF36F8F704765
:1039F0007C03002000BF00BF80B582B000AF4FF055
:103A0000500383F31188BFF36F8FBFF34F8F7B6039
:103A100000BFFFF757F90346002B03D0064B4FF0CA
:103A200080521A6000233B603B6883F3118800BF1B
:103A300000BF0837BD4680BD04ED00E080B400AF94
:103A40000A4B00221A600A4B00221A60094B1B68BD
:103A5000094AA2FB03239B09084A013B1360034B5D
:103A600007221A6000BFBD4680BC704710E000E02E
:103A700018E000E000000020D34D621014E000E0E8
:103A800080B485B000AFEFF30583FB60FB680F2BBC
:103A900015D9174AFB6813441B78FB72154B1B782A
:103AA000FA7A9A420BD24FF0500383F31188BFF396
:103AB0006F8FBFF34F8F7B6000BF00BFFDE70E4BE2
:103AC0001B6803F4E0620D4B1B689A420BD94FF060
:103AD000500383F31188BFF36F8FBFF34F8F3B60A9
:103AE00000BF00BFFDE700BF1437BD4680BC704774
:103AF000F0E300E0A80400200CED00E0AC0400209E
:103B000080B58AB000AF78600023FB61FFF72EF824
:103B10005C4B1B68002B01D100F024F95A4B1A684A
:103B20007B681340002B40F095807B68002B1ED0F3
:103B300008227B6813447B607B6803F00703002B3B
:103B400015D07B6823F0070308337B607B6803F0A4
:103B50000703002B0BD04FF0500383F31188BFF302
:103B60006F8FBFF34F8F7B6100BF00BFFDE77B68A6
:103B7000002B6FD0454B1B687A689A426AD8444B39
:103B80003B62434B1B687B6204E07B6A3B627B6A5F
:103B90001B687B627B6A5B687A689A4203D97B6A9E
:103BA0001B68002BF1D1374B1B687A6A9A4251D0BF
:103BB0003B6A1B6808221344FB617B6A1A683B6AF4
:103BC0001A607B6A5A687B68D21A08235B009A42A3
:103BD00020D97A6A7B681344BB61BB6903F0070391
:103BE000002B0BD04FF0500383F31188BFF36F8F7E
:103BF000BFF34F8F3B6100BF00BFFDE77B6A5A6890
:103C00007B68D21ABB695A607B6A7A685A60B86965
:103C100000F00AF91D4B1A687B6A5B68D31A1B4ACD
:103C200013601A4B1A681B4B1B689A4203D2174B3E
:103C30001B68184A13607B6A5A68134B1B681A4347
:103C40007B6A5A607B6A00221A60134B1B6801333F
:103C5000114A1360FEF798FFFB6903F00703002B7E
:103C60000BD04FF0500383F31188BFF36F8FBFF376
:103C70004F8FFB6000BF00BFFDE7FB691846283788
:103C8000BD4680BDB8100020CC100020BC10002024
:103C9000B0100020C0100020C410002080B586B0F5
:103CA00000AF78607B687B617B68002B4FD0082376
:103CB0005B427A6913447B617B693B613B695A686B
:103CC000254B1B681340002B0BD14FF0500383F39F
:103CD0001188BFF36F8FBFF34F8FFB6000BF00BF32
:103CE000FDE73B691B68002B0BD04FF0500383F3BB
:103CF0001188BFF36F8FBFF34F8FBB6000BF00BF52
:103D0000FDE73B695A68144B1B681340002B1ED01B
:103D10003B691B68002B1AD13B695A680E4B1B6824
:103D2000DB431A403B695A60FEF720FF3B695A6843
:103D30000A4B1B681344094A1360386900F074F891
:103D4000074B1B680133064A1360FEF71DFF00BFD7
:103D50001837BD4680BD00BFCC100020BC1000202D
:103D6000C810002080B485B000AF4FF44063BB6042
:103D7000274BFB60FB6803F00703002B0CD0FB68AC
:103D80000733FB60FB6823F00703FB60BA68FB683E
:103D9000D31A1F4A1344BB60FB687B601D4A7B68D3
:103DA00013601C4B00225A607B68BA681344FB60A6
:103DB0000822FB689B1AFB60FB6823F00703FB608B
:103DC000FB68154A1360144B1B6800225A60124BA3
:103DD0001B6800221A607B683B603B68FA68D21A55
:103DE0003B685A600C4B1A683B681A603B685B681A
:103DF0000A4A13603B685B68094A1360094B4FF03D
:103E000000421A6000BF1437BD4680BC704700BF37
:103E1000B0040020B0100020B8100020C010002016
:103E2000BC100020CC10002080B485B000AF7860BA
:103E3000274BFB6002E0FB681B68FB60FB681B68AC
:103E40007A689A42F7D8FB68BB60FB685B68BA681F
:103E500013447A689A4208D1FB685A687B685B68A9
:103E60001A44FB685A60FB687B607B68BB607B68B8
:103E70005B68BA681A44FB681B689A4218D1FB68F1
:103E80001A68144B1B689A420DD07B685A68FB680D
:103E90001B685B681A447B685A60FB681B681A6879
:103EA0007B681A6008E00B4B1A687B681A6003E0B5
:103EB000FB681A687B681A60FA687B689A4202D0CD
:103EC000FB687A681A6000BF1437BD4680BC704733
:103ED000B0100020B810002003460244934200D1E5
:103EE000704703F8011BF9E7294B70B51B680446BE
:103EF00083424BD0C369ABB1DB686BB10025E3698A
:103F0000DB68595900293BD10435802DF7D1E3698D
:103F10002046D96800F072F8E369196811B12046AB
:103F200000F06CF8616911B1204600F067F8E169B2
:103F300011B1204600F062F8216B11B1204600F06B
:103F40005DF8616B11B1204600F058F8A16B11B11A
:103F5000204600F053F8A16C11B1204600F04EF855
:103F6000616C11B1204600F049F8E16A11B12046B8
:103F700000F044F8236A4BB12046BDE87040184772
:103F80000E68204600F03AF83146BBE770BD00BF2E
:103F90001000002070B500260C4D0D4C641BA410C1
:103FA000A64209D100F07EF800260A4D0A4C641B97
:103FB000A410A64205D170BD55F8043B98470136C0
:103FC000EEE755F8043B98470136F2E768410008F0
:103FD00068410008684100086C410008704770475C
:103FE0000A44914200F1FF3300D1704710B511F837
:103FF000014B914203F8014FF9D110BD38B5054688
:10400000002940D051F8043C0C1F002BB8BFE41825
:1040100000F03CF81C4A136833B96360146028460A
:10402000BDE8384000F038B8A34208D9206821180C
:104030008B4201BF19685B6809182160EDE71A46D9
:104040005B680BB1A342FAD911685018A0420BD19A
:1040500020680144501883421160E0D118685B6801
:10406000084410605360DAE702D90C232B60D6E7CE
:10407000206821188B4201BF19685B68091821600C
:1040800063605460CBE738BD0C1200200148FFF795
:10409000A5BF00BF081200200148FFF7A0BF00BF66
:1040A00008120020F8B500BFF8BC08BC9E46704757
:0C40B000F8B500BFF8BC08BC9E46704785
:1040BC00547261666669633100000000BC40000800
:1040CC00D103000800000000000000008000000088
:1040DC0000000000000000005472616666696332E3
:1040EC0000000000E4400008590400080000000033
:1040FC000000000080000000000000000000000034
:10410C005065646573747269616E00000C4100083F
:10411C00E104000802000000000000008000000024
:10412C00000000000000000049444C450000000065
:10413C00000000000000000001020304060708094B
:10414C00000000000102030402030405060708092D
:0C415C000A0B0C0D0E0F101001020000E9
:044168003501000815
:04416C001101000835
:1041700000127A001000000001000000AAAAAAAAFA
:104180001400002000000000D01000203811002092
:10419000A01100200000000000000000000000004E
:1041A000000000000000000000000000000000000F
:1041B00000000000000000000000000000000000FF
:1041C00000000000000000000000000000000000EF
:04000005080007A93F
:00000001FF
